{"address":"0x2279B7A0a67DB372996a5FaB50D91eAA73d2eBe6","bytecode":"0x60c0604052600f60808190526e446f6573207468697320776f726b3f60881b60a09081526100309160009190610048565b50601d60015534801561004257600080fd5b506100e9565b828054600181600116156101000203166002900490600052602060002090601f01602090048101928261007e57600085556100c4565b82601f1061009757805160ff19168380011785556100c4565b828001600101855582156100c4579182015b828111156100c45782518255916020019190600101906100a9565b506100d09291506100d4565b5090565b5b808211156100d057600081556001016100d5565b610322806100f86000396000f3fe608060405234801561001057600080fd5b50600436106100415760003560e01c8063305dd8f21461004657806370740aab14610065578063af85ff92146100e2575b600080fd5b6100636004803603602081101561005c57600080fd5b50356100fc565b005b61006d610173565b6040805160208082528351818301528351919283929083019185019080838360005b838110156100a757818101518382015260200161008f565b50505050905090810190601f1680156100d45780820380516001836020036101000a031916815260200191505b509250505060405180910390f35b6100ea610201565b60408051918252519081900360200190f35b600181905560408051808201909152600e81526d73657420707572706f736520746f60901b602082015261013290339083610207565b60015460408051338152602081019290925280517f62a70c0cc7e4df0fb388b7bf4c3685e7986f63c0db0f95faed60eb91c3d696cd9281900390910190a150565b6000805460408051602060026001851615610100026000190190941693909304601f810184900484028201840190925281815292918301828280156101f95780601f106101ce576101008083540402835291602001916101f9565b820191906000526020600020905b8154815290600101906020018083116101dc57829003601f168201915b505050505081565b60015481565b6102c683838360405160240180846001600160a01b0316815260200180602001838152602001828103825284818151815260200191508051906020019080838360005b8381101561026257818101518382015260200161024a565b50505050905090810190601f16801561028f5780820380516001836020036101000a031916815260200191505b5060408051601f198184030181529190526020810180516001600160e01b0316630e6d794560e11b17905294506102cb9350505050565b505050565b80516a636f6e736f6c652e6c6f67602083016000808483855afa505050505056fea26469706673582212204f691b0d0be3d3c89c947e27074c510dbbfbe160b4e382a4ab0dacfa1dee509064736f6c63430007060033","abi":[{"inputs":[],"stateMutability":"nonpayable","type":"constructor"},{"anonymous":false,"inputs":[{"indexed":false,"internalType":"address","name":"sender","type":"address"},{"indexed":false,"internalType":"uint256","name":"purpose","type":"uint256"}],"name":"SetPurpose","type":"event"},{"inputs":[],"name":"jacksAge","outputs":[{"internalType":"uint256","name":"","type":"uint256"}],"stateMutability":"view","type":"function"},{"inputs":[],"name":"purpose","outputs":[{"internalType":"string","name":"","type":"string"}],"stateMutability":"view","type":"function"},{"inputs":[{"internalType":"uint256","name":"newPurpose","type":"uint256"}],"name":"setPurpose","outputs":[],"stateMutability":"nonpayable","type":"function"}]}